{
  "contractName": "NoPixelCharacters",
  "abi": [
    {
      "inputs": [],
      "stateMutability": "nonpayable",
      "type": "constructor"
    },
    {
      "anonymous": false,
      "inputs": [
        {
          "indexed": true,
          "internalType": "address",
          "name": "owner",
          "type": "address"
        },
        {
          "indexed": true,
          "internalType": "address",
          "name": "approved",
          "type": "address"
        },
        {
          "indexed": true,
          "internalType": "uint256",
          "name": "tokenId",
          "type": "uint256"
        }
      ],
      "name": "Approval",
      "type": "event"
    },
    {
      "anonymous": false,
      "inputs": [
        {
          "indexed": true,
          "internalType": "address",
          "name": "owner",
          "type": "address"
        },
        {
          "indexed": true,
          "internalType": "address",
          "name": "operator",
          "type": "address"
        },
        {
          "indexed": false,
          "internalType": "bool",
          "name": "approved",
          "type": "bool"
        }
      ],
      "name": "ApprovalForAll",
      "type": "event"
    },
    {
      "anonymous": false,
      "inputs": [
        {
          "indexed": true,
          "internalType": "address",
          "name": "previousOwner",
          "type": "address"
        },
        {
          "indexed": true,
          "internalType": "address",
          "name": "newOwner",
          "type": "address"
        }
      ],
      "name": "OwnershipTransferred",
      "type": "event"
    },
    {
      "anonymous": false,
      "inputs": [
        {
          "indexed": true,
          "internalType": "address",
          "name": "from",
          "type": "address"
        },
        {
          "indexed": true,
          "internalType": "address",
          "name": "to",
          "type": "address"
        },
        {
          "indexed": true,
          "internalType": "uint256",
          "name": "tokenId",
          "type": "uint256"
        }
      ],
      "name": "Transfer",
      "type": "event"
    },
    {
      "inputs": [
        {
          "internalType": "address",
          "name": "to",
          "type": "address"
        },
        {
          "internalType": "uint256",
          "name": "tokenId",
          "type": "uint256"
        }
      ],
      "name": "approve",
      "outputs": [],
      "stateMutability": "nonpayable",
      "type": "function"
    },
    {
      "inputs": [
        {
          "internalType": "address",
          "name": "owner",
          "type": "address"
        }
      ],
      "name": "balanceOf",
      "outputs": [
        {
          "internalType": "uint256",
          "name": "",
          "type": "uint256"
        }
      ],
      "stateMutability": "view",
      "type": "function",
      "constant": true
    },
    {
      "inputs": [
        {
          "internalType": "uint256",
          "name": "tokenId",
          "type": "uint256"
        }
      ],
      "name": "getApproved",
      "outputs": [
        {
          "internalType": "address",
          "name": "",
          "type": "address"
        }
      ],
      "stateMutability": "view",
      "type": "function",
      "constant": true
    },
    {
      "inputs": [
        {
          "internalType": "address",
          "name": "owner",
          "type": "address"
        },
        {
          "internalType": "address",
          "name": "operator",
          "type": "address"
        }
      ],
      "name": "isApprovedForAll",
      "outputs": [
        {
          "internalType": "bool",
          "name": "",
          "type": "bool"
        }
      ],
      "stateMutability": "view",
      "type": "function",
      "constant": true
    },
    {
      "inputs": [],
      "name": "name",
      "outputs": [
        {
          "internalType": "string",
          "name": "",
          "type": "string"
        }
      ],
      "stateMutability": "view",
      "type": "function",
      "constant": true
    },
    {
      "inputs": [],
      "name": "owner",
      "outputs": [
        {
          "internalType": "address",
          "name": "",
          "type": "address"
        }
      ],
      "stateMutability": "view",
      "type": "function",
      "constant": true
    },
    {
      "inputs": [
        {
          "internalType": "uint256",
          "name": "tokenId",
          "type": "uint256"
        }
      ],
      "name": "ownerOf",
      "outputs": [
        {
          "internalType": "address",
          "name": "",
          "type": "address"
        }
      ],
      "stateMutability": "view",
      "type": "function",
      "constant": true
    },
    {
      "inputs": [],
      "name": "renounceOwnership",
      "outputs": [],
      "stateMutability": "nonpayable",
      "type": "function"
    },
    {
      "inputs": [
        {
          "internalType": "address",
          "name": "from",
          "type": "address"
        },
        {
          "internalType": "address",
          "name": "to",
          "type": "address"
        },
        {
          "internalType": "uint256",
          "name": "tokenId",
          "type": "uint256"
        }
      ],
      "name": "safeTransferFrom",
      "outputs": [],
      "stateMutability": "nonpayable",
      "type": "function"
    },
    {
      "inputs": [
        {
          "internalType": "address",
          "name": "from",
          "type": "address"
        },
        {
          "internalType": "address",
          "name": "to",
          "type": "address"
        },
        {
          "internalType": "uint256",
          "name": "tokenId",
          "type": "uint256"
        },
        {
          "internalType": "bytes",
          "name": "_data",
          "type": "bytes"
        }
      ],
      "name": "safeTransferFrom",
      "outputs": [],
      "stateMutability": "nonpayable",
      "type": "function"
    },
    {
      "inputs": [
        {
          "internalType": "address",
          "name": "operator",
          "type": "address"
        },
        {
          "internalType": "bool",
          "name": "approved",
          "type": "bool"
        }
      ],
      "name": "setApprovalForAll",
      "outputs": [],
      "stateMutability": "nonpayable",
      "type": "function"
    },
    {
      "inputs": [],
      "name": "symbol",
      "outputs": [
        {
          "internalType": "string",
          "name": "",
          "type": "string"
        }
      ],
      "stateMutability": "view",
      "type": "function",
      "constant": true
    },
    {
      "inputs": [
        {
          "internalType": "uint256",
          "name": "index",
          "type": "uint256"
        }
      ],
      "name": "tokenByIndex",
      "outputs": [
        {
          "internalType": "uint256",
          "name": "",
          "type": "uint256"
        }
      ],
      "stateMutability": "view",
      "type": "function",
      "constant": true
    },
    {
      "inputs": [
        {
          "internalType": "address",
          "name": "owner",
          "type": "address"
        },
        {
          "internalType": "uint256",
          "name": "index",
          "type": "uint256"
        }
      ],
      "name": "tokenOfOwnerByIndex",
      "outputs": [
        {
          "internalType": "uint256",
          "name": "",
          "type": "uint256"
        }
      ],
      "stateMutability": "view",
      "type": "function",
      "constant": true
    },
    {
      "inputs": [],
      "name": "totalSupply",
      "outputs": [
        {
          "internalType": "uint256",
          "name": "",
          "type": "uint256"
        }
      ],
      "stateMutability": "view",
      "type": "function",
      "constant": true
    },
    {
      "inputs": [
        {
          "internalType": "address",
          "name": "from",
          "type": "address"
        },
        {
          "internalType": "address",
          "name": "to",
          "type": "address"
        },
        {
          "internalType": "uint256",
          "name": "tokenId",
          "type": "uint256"
        }
      ],
      "name": "transferFrom",
      "outputs": [],
      "stateMutability": "nonpayable",
      "type": "function"
    },
    {
      "inputs": [
        {
          "internalType": "address",
          "name": "newOwner",
          "type": "address"
        }
      ],
      "name": "transferOwnership",
      "outputs": [],
      "stateMutability": "nonpayable",
      "type": "function"
    },
    {
      "inputs": [
        {
          "internalType": "uint256",
          "name": "_tokenId",
          "type": "uint256"
        }
      ],
      "name": "mint",
      "outputs": [],
      "stateMutability": "nonpayable",
      "type": "function"
    },
    {
      "inputs": [
        {
          "internalType": "uint256",
          "name": "tokenId",
          "type": "uint256"
        }
      ],
      "name": "tokenURI",
      "outputs": [
        {
          "internalType": "string",
          "name": "",
          "type": "string"
        }
      ],
      "stateMutability": "view",
      "type": "function",
      "constant": true
    },
    {
      "inputs": [
        {
          "internalType": "bytes4",
          "name": "interfaceId",
          "type": "bytes4"
        }
      ],
      "name": "supportsInterface",
      "outputs": [
        {
          "internalType": "bool",
          "name": "",
          "type": "bool"
        }
      ],
      "stateMutability": "view",
      "type": "function",
      "constant": true
    }
  ],
  "bytecode": "0x60806040523480156200001157600080fd5b506040518060400160405280601281526020017f4e6f506978656c204368617261637465727300000000000000000000000000008152506040518060400160405280600381526020017f4e5043000000000000000000000000000000000000000000000000000000000081525081600090805190602001906200009692919062000171565b508060019080519060200190620000af92919062000171565b5050506000620000c46200016960201b60201c565b905080600b60006101000a81548173ffffffffffffffffffffffffffffffffffffffff021916908373ffffffffffffffffffffffffffffffffffffffff1602179055508073ffffffffffffffffffffffffffffffffffffffff16600073ffffffffffffffffffffffffffffffffffffffff167f8be0079c531659141344cd1fd0a4f28419497f9722a3daafe3b4186f6b6457e060405160405180910390a35062000286565b600033905090565b8280546200017f9062000221565b90600052602060002090601f016020900481019282620001a35760008555620001ef565b82601f10620001be57805160ff1916838001178555620001ef565b82800160010185558215620001ef579182015b82811115620001ee578251825591602001919060010190620001d1565b5b509050620001fe919062000202565b5090565b5b808211156200021d57600081600090555060010162000203565b5090565b600060028204905060018216806200023a57607f821691505b6020821081141562000251576200025062000257565b5b50919050565b7f4e487b7100000000000000000000000000000000000000000000000000000000600052602260045260246000fd5b6135d180620002966000396000f3fe608060405234801561001057600080fd5b506004361061012c5760003560e01c806370a08231116100ad578063a22cb46511610071578063a22cb46514610343578063b88d4fde1461035f578063c87b56dd1461037b578063e985e9c5146103ab578063f2fde38b146103db5761012c565b806370a08231146102b1578063715018a6146102e15780638da5cb5b146102eb57806395d89b4114610309578063a0712d68146103275761012c565b806323b872dd116100f457806323b872dd146101e95780632f745c591461020557806342842e0e146102355780634f6ccce7146102515780636352211e146102815761012c565b806301ffc9a71461013157806306fdde0314610161578063081812fc1461017f578063095ea7b3146101af57806318160ddd146101cb575b600080fd5b61014b6004803603810190610146919061251f565b6103f7565b604051610158919061298e565b60405180910390f35b610169610409565b60405161017691906129a9565b60405180910390f35b61019960048036038101906101949190612571565b61049b565b6040516101a69190612927565b60405180910390f35b6101c960048036038101906101c491906124e3565b610520565b005b6101d3610638565b6040516101e09190612c2b565b60405180910390f35b61020360048036038101906101fe91906123dd565b610645565b005b61021f600480360381019061021a91906124e3565b6106a5565b60405161022c9190612c2b565b60405180910390f35b61024f600480360381019061024a91906123dd565b61074a565b005b61026b60048036038101906102669190612571565b61076a565b6040516102789190612c2b565b60405180910390f35b61029b60048036038101906102969190612571565b610801565b6040516102a89190612927565b60405180910390f35b6102cb60048036038101906102c69190612378565b6108b3565b6040516102d89190612c2b565b60405180910390f35b6102e961096b565b005b6102f3610aa8565b6040516103009190612927565b60405180910390f35b610311610ad2565b60405161031e91906129a9565b60405180910390f35b610341600480360381019061033c9190612571565b610b64565b005b61035d600480360381019061035891906124a7565b610bed565b005b6103796004803603810190610374919061242c565b610d6e565b005b61039560048036038101906103909190612571565b610dd0565b6040516103a291906129a9565b60405180910390f35b6103c560048036038101906103c091906123a1565b610de2565b6040516103d2919061298e565b60405180910390f35b6103f560048036038101906103f09190612378565b610e76565b005b600061040282611022565b9050919050565b60606000805461041890612e50565b80601f016020809104026020016040519081016040528092919081815260200182805461044490612e50565b80156104915780601f1061046657610100808354040283529160200191610491565b820191906000526020600020905b81548152906001019060200180831161047457829003601f168201915b5050505050905090565b60006104a68261109c565b6104e5576040517f08c379a00000000000000000000000000000000000000000000000000000000081526004016104dc90612b4b565b60405180910390fd5b6004600083815260200190815260200160002060009054906101000a900473ffffffffffffffffffffffffffffffffffffffff169050919050565b600061052b82610801565b90508073ffffffffffffffffffffffffffffffffffffffff168373ffffffffffffffffffffffffffffffffffffffff16141561059c576040517f08c379a000000000000000000000000000000000000000000000000000000000815260040161059390612bcb565b60405180910390fd5b8073ffffffffffffffffffffffffffffffffffffffff166105bb611108565b73ffffffffffffffffffffffffffffffffffffffff1614806105ea57506105e9816105e4611108565b610de2565b5b610629576040517f08c379a000000000000000000000000000000000000000000000000000000000815260040161062090612aab565b60405180910390fd5b6106338383611110565b505050565b6000600880549050905090565b610656610650611108565b826111c9565b610695576040517f08c379a000000000000000000000000000000000000000000000000000000000815260040161068c90612beb565b60405180910390fd5b6106a08383836112a7565b505050565b60006106b0836108b3565b82106106f1576040517f08c379a00000000000000000000000000000000000000000000000000000000081526004016106e8906129cb565b60405180910390fd5b600660008473ffffffffffffffffffffffffffffffffffffffff1673ffffffffffffffffffffffffffffffffffffffff168152602001908152602001600020600083815260200190815260200160002054905092915050565b61076583838360405180602001604052806000815250610d6e565b505050565b6000610774610638565b82106107b5576040517f08c379a00000000000000000000000000000000000000000000000000000000081526004016107ac90612c0b565b60405180910390fd5b600882815481106107ef577f4e487b7100000000000000000000000000000000000000000000000000000000600052603260045260246000fd5b90600052602060002001549050919050565b6000806002600084815260200190815260200160002060009054906101000a900473ffffffffffffffffffffffffffffffffffffffff169050600073ffffffffffffffffffffffffffffffffffffffff168173ffffffffffffffffffffffffffffffffffffffff1614156108aa576040517f08c379a00000000000000000000000000000000000000000000000000000000081526004016108a190612aeb565b60405180910390fd5b80915050919050565b60008073ffffffffffffffffffffffffffffffffffffffff168273ffffffffffffffffffffffffffffffffffffffff161415610924576040517f08c379a000000000000000000000000000000000000000000000000000000000815260040161091b90612acb565b60405180910390fd5b600360008373ffffffffffffffffffffffffffffffffffffffff1673ffffffffffffffffffffffffffffffffffffffff168152602001908152602001600020549050919050565b610973611108565b73ffffffffffffffffffffffffffffffffffffffff16610991610aa8565b73ffffffffffffffffffffffffffffffffffffffff16146109e7576040517f08c379a00000000000000000000000000000000000000000000000000000000081526004016109de90612b6b565b60405180910390fd5b600073ffffffffffffffffffffffffffffffffffffffff16600b60009054906101000a900473ffffffffffffffffffffffffffffffffffffffff1673ffffffffffffffffffffffffffffffffffffffff167f8be0079c531659141344cd1fd0a4f28419497f9722a3daafe3b4186f6b6457e060405160405180910390a36000600b60006101000a81548173ffffffffffffffffffffffffffffffffffffffff021916908373ffffffffffffffffffffffffffffffffffffffff160217905550565b6000600b60009054906101000a900473ffffffffffffffffffffffffffffffffffffffff16905090565b606060018054610ae190612e50565b80601f0160208091040260200160405190810160405280929190818152602001828054610b0d90612e50565b8015610b5a5780601f10610b2f57610100808354040283529160200191610b5a565b820191906000526020600020905b815481529060010190602001808311610b3d57829003601f168201915b5050505050905090565b610b6c611108565b73ffffffffffffffffffffffffffffffffffffffff16610b8a610aa8565b73ffffffffffffffffffffffffffffffffffffffff1614610be0576040517f08c379a0000000000000000000000000000000000000000000000000000000008152600401610bd790612b6b565b60405180910390fd5b610bea3382611503565b50565b610bf5611108565b73ffffffffffffffffffffffffffffffffffffffff168273ffffffffffffffffffffffffffffffffffffffff161415610c63576040517f08c379a0000000000000000000000000000000000000000000000000000000008152600401610c5a90612a6b565b60405180910390fd5b8060056000610c70611108565b73ffffffffffffffffffffffffffffffffffffffff1673ffffffffffffffffffffffffffffffffffffffff16815260200190815260200160002060008473ffffffffffffffffffffffffffffffffffffffff1673ffffffffffffffffffffffffffffffffffffffff16815260200190815260200160002060006101000a81548160ff0219169083151502179055508173ffffffffffffffffffffffffffffffffffffffff16610d1d611108565b73ffffffffffffffffffffffffffffffffffffffff167f17307eab39ab6107e8899845ad3d59bd9653f200f220920489ca2b5937696c3183604051610d62919061298e565b60405180910390a35050565b610d7f610d79611108565b836111c9565b610dbe576040517f08c379a0000000000000000000000000000000000000000000000000000000008152600401610db590612beb565b60405180910390fd5b610dca848484846116d1565b50505050565b6060610ddb8261172d565b9050919050565b6000600560008473ffffffffffffffffffffffffffffffffffffffff1673ffffffffffffffffffffffffffffffffffffffff16815260200190815260200160002060008373ffffffffffffffffffffffffffffffffffffffff1673ffffffffffffffffffffffffffffffffffffffff16815260200190815260200160002060009054906101000a900460ff16905092915050565b610e7e611108565b73ffffffffffffffffffffffffffffffffffffffff16610e9c610aa8565b73ffffffffffffffffffffffffffffffffffffffff1614610ef2576040517f08c379a0000000000000000000000000000000000000000000000000000000008152600401610ee990612b6b565b60405180910390fd5b600073ffffffffffffffffffffffffffffffffffffffff168173ffffffffffffffffffffffffffffffffffffffff161415610f62576040517f08c379a0000000000000000000000000000000000000000000000000000000008152600401610f5990612a0b565b60405180910390fd5b8073ffffffffffffffffffffffffffffffffffffffff16600b60009054906101000a900473ffffffffffffffffffffffffffffffffffffffff1673ffffffffffffffffffffffffffffffffffffffff167f8be0079c531659141344cd1fd0a4f28419497f9722a3daafe3b4186f6b6457e060405160405180910390a380600b60006101000a81548173ffffffffffffffffffffffffffffffffffffffff021916908373ffffffffffffffffffffffffffffffffffffffff16021790555050565b60007f780e9d63000000000000000000000000000000000000000000000000000000007bffffffffffffffffffffffffffffffffffffffffffffffffffffffff1916827bffffffffffffffffffffffffffffffffffffffffffffffffffffffff1916148061109557506110948261187f565b5b9050919050565b60008073ffffffffffffffffffffffffffffffffffffffff166002600084815260200190815260200160002060009054906101000a900473ffffffffffffffffffffffffffffffffffffffff1673ffffffffffffffffffffffffffffffffffffffff1614159050919050565b600033905090565b816004600083815260200190815260200160002060006101000a81548173ffffffffffffffffffffffffffffffffffffffff021916908373ffffffffffffffffffffffffffffffffffffffff160217905550808273ffffffffffffffffffffffffffffffffffffffff1661118383610801565b73ffffffffffffffffffffffffffffffffffffffff167f8c5be1e5ebec7d5bd14f71427d1e84f3dd0314c0f7b2291e5b200ac8c7c3b92560405160405180910390a45050565b60006111d48261109c565b611213576040517f08c379a000000000000000000000000000000000000000000000000000000000815260040161120a90612a8b565b60405180910390fd5b600061121e83610801565b90508073ffffffffffffffffffffffffffffffffffffffff168473ffffffffffffffffffffffffffffffffffffffff16148061128d57508373ffffffffffffffffffffffffffffffffffffffff166112758461049b565b73ffffffffffffffffffffffffffffffffffffffff16145b8061129e575061129d8185610de2565b5b91505092915050565b8273ffffffffffffffffffffffffffffffffffffffff166112c782610801565b73ffffffffffffffffffffffffffffffffffffffff161461131d576040517f08c379a000000000000000000000000000000000000000000000000000000000815260040161131490612b8b565b60405180910390fd5b600073ffffffffffffffffffffffffffffffffffffffff168273ffffffffffffffffffffffffffffffffffffffff16141561138d576040517f08c379a000000000000000000000000000000000000000000000000000000000815260040161138490612a4b565b60405180910390fd5b611398838383611961565b6113a3600082611110565b6001600360008573ffffffffffffffffffffffffffffffffffffffff1673ffffffffffffffffffffffffffffffffffffffff16815260200190815260200160002060008282546113f39190612d66565b925050819055506001600360008473ffffffffffffffffffffffffffffffffffffffff1673ffffffffffffffffffffffffffffffffffffffff168152602001908152602001600020600082825461144a9190612cdf565b92505081905550816002600083815260200190815260200160002060006101000a81548173ffffffffffffffffffffffffffffffffffffffff021916908373ffffffffffffffffffffffffffffffffffffffff160217905550808273ffffffffffffffffffffffffffffffffffffffff168473ffffffffffffffffffffffffffffffffffffffff167fddf252ad1be2c89b69c2b068fc378daa952ba7f163c4a11628f55a4df523b3ef60405160405180910390a4505050565b600073ffffffffffffffffffffffffffffffffffffffff168273ffffffffffffffffffffffffffffffffffffffff161415611573576040517f08c379a000000000000000000000000000000000000000000000000000000000815260040161156a90612b0b565b60405180910390fd5b61157c8161109c565b156115bc576040517f08c379a00000000000000000000000000000000000000000000000000000000081526004016115b390612a2b565b60405180910390fd5b6115c860008383611961565b6001600360008473ffffffffffffffffffffffffffffffffffffffff1673ffffffffffffffffffffffffffffffffffffffff16815260200190815260200160002060008282546116189190612cdf565b92505081905550816002600083815260200190815260200160002060006101000a81548173ffffffffffffffffffffffffffffffffffffffff021916908373ffffffffffffffffffffffffffffffffffffffff160217905550808273ffffffffffffffffffffffffffffffffffffffff16600073ffffffffffffffffffffffffffffffffffffffff167fddf252ad1be2c89b69c2b068fc378daa952ba7f163c4a11628f55a4df523b3ef60405160405180910390a45050565b6116dc8484846112a7565b6116e884848484611971565b611727576040517f08c379a000000000000000000000000000000000000000000000000000000000815260040161171e906129eb565b60405180910390fd5b50505050565b60606117388261109c565b611777576040517f08c379a000000000000000000000000000000000000000000000000000000000815260040161176e90612b2b565b60405180910390fd5b6000600a6000848152602001908152602001600020805461179790612e50565b80601f01602080910402602001604051908101604052809291908181526020018280546117c390612e50565b80156118105780601f106117e557610100808354040283529160200191611810565b820191906000526020600020905b8154815290600101906020018083116117f357829003601f168201915b505050505090506000611821611b08565b905060008151141561183757819250505061187a565b60008251111561186c578082604051602001611854929190612903565b6040516020818303038152906040529250505061187a565b61187584611b45565b925050505b919050565b60007f80ac58cd000000000000000000000000000000000000000000000000000000007bffffffffffffffffffffffffffffffffffffffffffffffffffffffff1916827bffffffffffffffffffffffffffffffffffffffffffffffffffffffff1916148061194a57507f5b5e139f000000000000000000000000000000000000000000000000000000007bffffffffffffffffffffffffffffffffffffffffffffffffffffffff1916827bffffffffffffffffffffffffffffffffffffffffffffffffffffffff1916145b8061195a575061195982611bec565b5b9050919050565b61196c838383611c56565b505050565b60006119928473ffffffffffffffffffffffffffffffffffffffff16611d6a565b15611afb578373ffffffffffffffffffffffffffffffffffffffff1663150b7a026119bb611108565b8786866040518563ffffffff1660e01b81526004016119dd9493929190612942565b602060405180830381600087803b1580156119f757600080fd5b505af1925050508015611a2857506040513d601f19601f82011682018060405250810190611a259190612548565b60015b611aab573d8060008114611a58576040519150601f19603f3d011682016040523d82523d6000602084013e611a5d565b606091505b50600081511415611aa3576040517f08c379a0000000000000000000000000000000000000000000000000000000008152600401611a9a906129eb565b60405180910390fd5b805181602001fd5b63150b7a0260e01b7bffffffffffffffffffffffffffffffffffffffffffffffffffffffff1916817bffffffffffffffffffffffffffffffffffffffffffffffffffffffff191614915050611b00565b600190505b949350505050565b60606040518060400160405280601881526020017f687474703a2f2f6c6f63616c686f73743a343030302f632f0000000000000000815250905090565b6060611b508261109c565b611b8f576040517f08c379a0000000000000000000000000000000000000000000000000000000008152600401611b8690612bab565b60405180910390fd5b6000611b99611b08565b90506000815111611bb95760405180602001604052806000815250611be4565b80611bc384611d7d565b604051602001611bd4929190612903565b6040516020818303038152906040525b915050919050565b60007f01ffc9a7000000000000000000000000000000000000000000000000000000007bffffffffffffffffffffffffffffffffffffffffffffffffffffffff1916827bffffffffffffffffffffffffffffffffffffffffffffffffffffffff1916149050919050565b611c61838383611f2a565b600073ffffffffffffffffffffffffffffffffffffffff168373ffffffffffffffffffffffffffffffffffffffff161415611ca457611c9f81611f2f565b611ce3565b8173ffffffffffffffffffffffffffffffffffffffff168373ffffffffffffffffffffffffffffffffffffffff1614611ce257611ce18382611f78565b5b5b600073ffffffffffffffffffffffffffffffffffffffff168273ffffffffffffffffffffffffffffffffffffffff161415611d2657611d21816120e5565b611d65565b8273ffffffffffffffffffffffffffffffffffffffff168273ffffffffffffffffffffffffffffffffffffffff1614611d6457611d638282612228565b5b5b505050565b600080823b905060008111915050919050565b60606000821415611dc5576040518060400160405280600181526020017f30000000000000000000000000000000000000000000000000000000000000008152509050611f25565b600082905060005b60008214611df7578080611de090612eb3565b915050600a82611df09190612d35565b9150611dcd565b60008167ffffffffffffffff811115611e39577f4e487b7100000000000000000000000000000000000000000000000000000000600052604160045260246000fd5b6040519080825280601f01601f191660200182016040528015611e6b5781602001600182028036833780820191505090505b5090505b60008514611f1e57600182611e849190612d66565b9150600a85611e939190612efc565b6030611e9f9190612cdf565b60f81b818381518110611edb577f4e487b7100000000000000000000000000000000000000000000000000000000600052603260045260246000fd5b60200101907effffffffffffffffffffffffffffffffffffffffffffffffffffffffffffff1916908160001a905350600a85611f179190612d35565b9450611e6f565b8093505050505b919050565b505050565b6008805490506009600083815260200190815260200160002081905550600881908060018154018082558091505060019003906000526020600020016000909190919091505550565b60006001611f85846108b3565b611f8f9190612d66565b9050600060076000848152602001908152602001600020549050818114612074576000600660008673ffffffffffffffffffffffffffffffffffffffff1673ffffffffffffffffffffffffffffffffffffffff168152602001908152602001600020600084815260200190815260200160002054905080600660008773ffffffffffffffffffffffffffffffffffffffff1673ffffffffffffffffffffffffffffffffffffffff168152602001908152602001600020600084815260200190815260200160002081905550816007600083815260200190815260200160002081905550505b6007600084815260200190815260200160002060009055600660008573ffffffffffffffffffffffffffffffffffffffff1673ffffffffffffffffffffffffffffffffffffffff16815260200190815260200160002060008381526020019081526020016000206000905550505050565b600060016008805490506120f99190612d66565b905060006009600084815260200190815260200160002054905060006008838154811061214f577f4e487b7100000000000000000000000000000000000000000000000000000000600052603260045260246000fd5b906000526020600020015490508060088381548110612197577f4e487b7100000000000000000000000000000000000000000000000000000000600052603260045260246000fd5b90600052602060002001819055508160096000838152602001908152602001600020819055506009600085815260200190815260200160002060009055600880548061220c577f4e487b7100000000000000000000000000000000000000000000000000000000600052603160045260246000fd5b6001900381819060005260206000200160009055905550505050565b6000612233836108b3565b905081600660008573ffffffffffffffffffffffffffffffffffffffff1673ffffffffffffffffffffffffffffffffffffffff168152602001908152602001600020600083815260200190815260200160002081905550806007600084815260200190815260200160002081905550505050565b60006122ba6122b584612c6b565b612c46565b9050828152602081018484840111156122d257600080fd5b6122dd848285612e0e565b509392505050565b6000813590506122f48161353f565b92915050565b60008135905061230981613556565b92915050565b60008135905061231e8161356d565b92915050565b6000815190506123338161356d565b92915050565b600082601f83011261234a57600080fd5b813561235a8482602086016122a7565b91505092915050565b60008135905061237281613584565b92915050565b60006020828403121561238a57600080fd5b6000612398848285016122e5565b91505092915050565b600080604083850312156123b457600080fd5b60006123c2858286016122e5565b92505060206123d3858286016122e5565b9150509250929050565b6000806000606084860312156123f257600080fd5b6000612400868287016122e5565b9350506020612411868287016122e5565b925050604061242286828701612363565b9150509250925092565b6000806000806080858703121561244257600080fd5b6000612450878288016122e5565b9450506020612461878288016122e5565b935050604061247287828801612363565b925050606085013567ffffffffffffffff81111561248f57600080fd5b61249b87828801612339565b91505092959194509250565b600080604083850312156124ba57600080fd5b60006124c8858286016122e5565b92505060206124d9858286016122fa565b9150509250929050565b600080604083850312156124f657600080fd5b6000612504858286016122e5565b925050602061251585828601612363565b9150509250929050565b60006020828403121561253157600080fd5b600061253f8482850161230f565b91505092915050565b60006020828403121561255a57600080fd5b600061256884828501612324565b91505092915050565b60006020828403121561258357600080fd5b600061259184828501612363565b91505092915050565b6125a381612d9a565b82525050565b6125b281612dac565b82525050565b60006125c382612c9c565b6125cd8185612cb2565b93506125dd818560208601612e1d565b6125e681612fe9565b840191505092915050565b60006125fc82612ca7565b6126068185612cc3565b9350612616818560208601612e1d565b61261f81612fe9565b840191505092915050565b600061263582612ca7565b61263f8185612cd4565b935061264f818560208601612e1d565b80840191505092915050565b6000612668602b83612cc3565b915061267382612ffa565b604082019050919050565b600061268b603283612cc3565b915061269682613049565b604082019050919050565b60006126ae602683612cc3565b91506126b982613098565b604082019050919050565b60006126d1601c83612cc3565b91506126dc826130e7565b602082019050919050565b60006126f4602483612cc3565b91506126ff82613110565b604082019050919050565b6000612717601983612cc3565b91506127228261315f565b602082019050919050565b600061273a602c83612cc3565b915061274582613188565b604082019050919050565b600061275d603883612cc3565b9150612768826131d7565b604082019050919050565b6000612780602a83612cc3565b915061278b82613226565b604082019050919050565b60006127a3602983612cc3565b91506127ae82613275565b604082019050919050565b60006127c6602083612cc3565b91506127d1826132c4565b602082019050919050565b60006127e9603183612cc3565b91506127f4826132ed565b604082019050919050565b600061280c602c83612cc3565b91506128178261333c565b604082019050919050565b600061282f602083612cc3565b915061283a8261338b565b602082019050919050565b6000612852602983612cc3565b915061285d826133b4565b604082019050919050565b6000612875602f83612cc3565b915061288082613403565b604082019050919050565b6000612898602183612cc3565b91506128a382613452565b604082019050919050565b60006128bb603183612cc3565b91506128c6826134a1565b604082019050919050565b60006128de602c83612cc3565b91506128e9826134f0565b604082019050919050565b6128fd81612e04565b82525050565b600061290f828561262a565b915061291b828461262a565b91508190509392505050565b600060208201905061293c600083018461259a565b92915050565b6000608082019050612957600083018761259a565b612964602083018661259a565b61297160408301856128f4565b818103606083015261298381846125b8565b905095945050505050565b60006020820190506129a360008301846125a9565b92915050565b600060208201905081810360008301526129c381846125f1565b905092915050565b600060208201905081810360008301526129e48161265b565b9050919050565b60006020820190508181036000830152612a048161267e565b9050919050565b60006020820190508181036000830152612a24816126a1565b9050919050565b60006020820190508181036000830152612a44816126c4565b9050919050565b60006020820190508181036000830152612a64816126e7565b9050919050565b60006020820190508181036000830152612a848161270a565b9050919050565b60006020820190508181036000830152612aa48161272d565b9050919050565b60006020820190508181036000830152612ac481612750565b9050919050565b60006020820190508181036000830152612ae481612773565b9050919050565b60006020820190508181036000830152612b0481612796565b9050919050565b60006020820190508181036000830152612b24816127b9565b9050919050565b60006020820190508181036000830152612b44816127dc565b9050919050565b60006020820190508181036000830152612b64816127ff565b9050919050565b60006020820190508181036000830152612b8481612822565b9050919050565b60006020820190508181036000830152612ba481612845565b9050919050565b60006020820190508181036000830152612bc481612868565b9050919050565b60006020820190508181036000830152612be48161288b565b9050919050565b60006020820190508181036000830152612c04816128ae565b9050919050565b60006020820190508181036000830152612c24816128d1565b9050919050565b6000602082019050612c4060008301846128f4565b92915050565b6000612c50612c61565b9050612c5c8282612e82565b919050565b6000604051905090565b600067ffffffffffffffff821115612c8657612c85612fba565b5b612c8f82612fe9565b9050602081019050919050565b600081519050919050565b600081519050919050565b600082825260208201905092915050565b600082825260208201905092915050565b600081905092915050565b6000612cea82612e04565b9150612cf583612e04565b9250827fffffffffffffffffffffffffffffffffffffffffffffffffffffffffffffffff03821115612d2a57612d29612f2d565b5b828201905092915050565b6000612d4082612e04565b9150612d4b83612e04565b925082612d5b57612d5a612f5c565b5b828204905092915050565b6000612d7182612e04565b9150612d7c83612e04565b925082821015612d8f57612d8e612f2d565b5b828203905092915050565b6000612da582612de4565b9050919050565b60008115159050919050565b60007fffffffff0000000000000000000000000000000000000000000000000000000082169050919050565b600073ffffffffffffffffffffffffffffffffffffffff82169050919050565b6000819050919050565b82818337600083830152505050565b60005b83811015612e3b578082015181840152602081019050612e20565b83811115612e4a576000848401525b50505050565b60006002820490506001821680612e6857607f821691505b60208210811415612e7c57612e7b612f8b565b5b50919050565b612e8b82612fe9565b810181811067ffffffffffffffff82111715612eaa57612ea9612fba565b5b80604052505050565b6000612ebe82612e04565b91507fffffffffffffffffffffffffffffffffffffffffffffffffffffffffffffffff821415612ef157612ef0612f2d565b5b600182019050919050565b6000612f0782612e04565b9150612f1283612e04565b925082612f2257612f21612f5c565b5b828206905092915050565b7f4e487b7100000000000000000000000000000000000000000000000000000000600052601160045260246000fd5b7f4e487b7100000000000000000000000000000000000000000000000000000000600052601260045260246000fd5b7f4e487b7100000000000000000000000000000000000000000000000000000000600052602260045260246000fd5b7f4e487b7100000000000000000000000000000000000000000000000000000000600052604160045260246000fd5b6000601f19601f8301169050919050565b7f455243373231456e756d657261626c653a206f776e657220696e646578206f7560008201527f74206f6620626f756e6473000000000000000000000000000000000000000000602082015250565b7f4552433732313a207472616e7366657220746f206e6f6e20455243373231526560008201527f63656976657220696d706c656d656e7465720000000000000000000000000000602082015250565b7f4f776e61626c653a206e6577206f776e657220697320746865207a65726f206160008201527f6464726573730000000000000000000000000000000000000000000000000000602082015250565b7f4552433732313a20746f6b656e20616c7265616479206d696e74656400000000600082015250565b7f4552433732313a207472616e7366657220746f20746865207a65726f2061646460008201527f7265737300000000000000000000000000000000000000000000000000000000602082015250565b7f4552433732313a20617070726f766520746f2063616c6c657200000000000000600082015250565b7f4552433732313a206f70657261746f7220717565727920666f72206e6f6e657860008201527f697374656e7420746f6b656e0000000000000000000000000000000000000000602082015250565b7f4552433732313a20617070726f76652063616c6c6572206973206e6f74206f7760008201527f6e6572206e6f7220617070726f76656420666f7220616c6c0000000000000000602082015250565b7f4552433732313a2062616c616e636520717565727920666f7220746865207a6560008201527f726f206164647265737300000000000000000000000000000000000000000000602082015250565b7f4552433732313a206f776e657220717565727920666f72206e6f6e657869737460008201527f656e7420746f6b656e0000000000000000000000000000000000000000000000602082015250565b7f4552433732313a206d696e7420746f20746865207a65726f2061646472657373600082015250565b7f45524337323155524953746f726167653a2055524920717565727920666f722060008201527f6e6f6e6578697374656e7420746f6b656e000000000000000000000000000000602082015250565b7f4552433732313a20617070726f76656420717565727920666f72206e6f6e657860008201527f697374656e7420746f6b656e0000000000000000000000000000000000000000602082015250565b7f4f776e61626c653a2063616c6c6572206973206e6f7420746865206f776e6572600082015250565b7f4552433732313a207472616e73666572206f6620746f6b656e2074686174206960008201527f73206e6f74206f776e0000000000000000000000000000000000000000000000602082015250565b7f4552433732314d657461646174613a2055524920717565727920666f72206e6f60008201527f6e6578697374656e7420746f6b656e0000000000000000000000000000000000602082015250565b7f4552433732313a20617070726f76616c20746f2063757272656e74206f776e6560008201527f7200000000000000000000000000000000000000000000000000000000000000602082015250565b7f4552433732313a207472616e736665722063616c6c6572206973206e6f74206f60008201527f776e6572206e6f7220617070726f766564000000000000000000000000000000602082015250565b7f455243373231456e756d657261626c653a20676c6f62616c20696e646578206f60008201527f7574206f6620626f756e64730000000000000000000000000000000000000000602082015250565b61354881612d9a565b811461355357600080fd5b50565b61355f81612dac565b811461356a57600080fd5b50565b61357681612db8565b811461358157600080fd5b50565b61358d81612e04565b811461359857600080fd5b5056fea26469706673582212204d11c9176306a9b8ee9f4c594d08b050e3c3e0495bb628b06f8d8e1c04b1d34064736f6c63430008040033",
  "immutableReferences": {},
  "source": "// SPDX-License-Identifier: UNLICENSED\npragma solidity ^0.8.4;\n\nimport \"@openzeppelin/contracts/token/ERC721/ERC721.sol\";\nimport \"@openzeppelin/contracts/token/ERC721/extensions/ERC721Enumerable.sol\";\nimport \"@openzeppelin/contracts/token/ERC721/extensions/ERC721URIStorage.sol\";\nimport \"@openzeppelin/contracts/access/Ownable.sol\";\n\ncontract NoPixelCharacters is ERC721, ERC721Enumerable, ERC721URIStorage, Ownable {\n  constructor() ERC721(\"NoPixel Characters\", \"NPC\") {\n  }\n\n  function mint(uint256 _tokenId) public onlyOwner {\n    _mint(msg.sender, _tokenId);\n  }\n\n  // Internal Requirements for ERC721, ERC721Enumerable\n  function _baseURI() internal pure override returns (string memory) {\n    return \"http://localhost:4000/c/\";\n  }\n\n  function _beforeTokenTransfer(address from, address to, uint256 tokenId)\n    internal\n    override(ERC721, ERC721Enumerable)\n  {\n    super._beforeTokenTransfer(from, to, tokenId);\n  }\n\n  function _burn(uint256 tokenId) internal override(ERC721, ERC721URIStorage) {\n        super._burn(tokenId);\n    }\n\n  function tokenURI(uint256 tokenId)\n      public\n      view\n      override(ERC721, ERC721URIStorage)\n      returns (string memory)\n  {\n      return super.tokenURI(tokenId);\n  }\n\n  function supportsInterface(bytes4 interfaceId)\n    public\n    view\n    override(ERC721, ERC721Enumerable)\n    returns (bool)\n  {\n    return super.supportsInterface(interfaceId);\n  }\n\n}",
  "sourcePath": "/home/agregis/Ethereum/NFT/src/contracts/NoPixelCharacters.sol",
  "compiler": {
    "name": "solc",
    "version": "0.8.4+commit.c7e474f2.Emscripten.clang"
  },
  "schemaVersion": "3.4.0",
  "updatedAt": "2021-04-28T19:08:56.356Z",
  "networkType": "ethereum",
  "devdoc": {
    "kind": "dev",
    "methods": {
      "approve(address,uint256)": {
        "details": "See {IERC721-approve}."
      },
      "balanceOf(address)": {
        "details": "See {IERC721-balanceOf}."
      },
      "getApproved(uint256)": {
        "details": "See {IERC721-getApproved}."
      },
      "isApprovedForAll(address,address)": {
        "details": "See {IERC721-isApprovedForAll}."
      },
      "name()": {
        "details": "See {IERC721Metadata-name}."
      },
      "owner()": {
        "details": "Returns the address of the current owner."
      },
      "ownerOf(uint256)": {
        "details": "See {IERC721-ownerOf}."
      },
      "renounceOwnership()": {
        "details": "Leaves the contract without owner. It will not be possible to call `onlyOwner` functions anymore. Can only be called by the current owner. NOTE: Renouncing ownership will leave the contract without an owner, thereby removing any functionality that is only available to the owner."
      },
      "safeTransferFrom(address,address,uint256)": {
        "details": "See {IERC721-safeTransferFrom}."
      },
      "safeTransferFrom(address,address,uint256,bytes)": {
        "details": "See {IERC721-safeTransferFrom}."
      },
      "setApprovalForAll(address,bool)": {
        "details": "See {IERC721-setApprovalForAll}."
      },
      "symbol()": {
        "details": "See {IERC721Metadata-symbol}."
      },
      "tokenByIndex(uint256)": {
        "details": "See {IERC721Enumerable-tokenByIndex}."
      },
      "tokenOfOwnerByIndex(address,uint256)": {
        "details": "See {IERC721Enumerable-tokenOfOwnerByIndex}."
      },
      "totalSupply()": {
        "details": "See {IERC721Enumerable-totalSupply}."
      },
      "transferFrom(address,address,uint256)": {
        "details": "See {IERC721-transferFrom}."
      },
      "transferOwnership(address)": {
        "details": "Transfers ownership of the contract to a new account (`newOwner`). Can only be called by the current owner."
      }
    },
    "version": 1
  },
  "userdoc": {
    "kind": "user",
    "methods": {},
    "version": 1
  }
}